S020000044435F4D6F746F725F436F6E74726F6C735F52544F535F322E7372656322
S11300000C942A000C9447000C9447000C9447006D
S11300100C9447000C9447000C9447000C940C0279
S11300200C9447000C9447000C9447000C94470030
S11300300C9447000C9447000C9447000C94470020
S11300400C9447000C9447000C9447000C94470010
S11300500C94470011241FBECFE5D8E0DEBFCDBF0E
S113006010E0A0E6B0E0EEE0FEE102C005900D92E3
S1130070A437B107D9F726E0A4E7B0E001C01D9288
S1130080A03CB207E1F70E94930D0C94050F0C9469
S11300900000FC010396928381832FEF3FEF3483AA
S11300A02383968385839087878310820895FC0138
S11300B0118610860895CF93DF93EB01488159810F
S11300C04F3F2FEF520721F4FC01A781B0850DC0EB
S11300D0DC01139601C0DF011296ED91FC91139798
S11300E02081318142175307B0F71296ED91FC91AC
S11300F01397FB83EA83D583C483BD83AC831396B0
S1130100DC93CE93129799878887FC0120812F5F17
S11301102083DF91CF910895CF93DF93FC01A085D5
S1130120B185C281D381848195819D838C83C4816F
S1130130D581828193819B838A8311968D919C9131
S11301401297E817F90731F48481958112969C93EC
S11301508E931197118610868C9181508C938C917B
S1130160DF91CF9108951BBC8CE78ABD8BE08EBDD7
S113017089B7806189BF089531E1FC0130833197EB
S113018022E220833197A3E3A083319760833197E0
S1130190708331971082319760E8608331971082C1
S11301A0319762E06083319763E06083319764E064
S11301B06083319765E06083319766E060833197AF
S11301C067E06083319768E06083319769E060831A
S11301D0319760E1608331973083319732E1308326
S11301E0319733E13083319734E13083319735E10E
S11301F03083319736E13083319737E1308331975B
S113020038E13083319739E13083319730E23083FC
S1130210319731E2308331972083319723E2208371
S11302203197408331975083319726E22083319769
S113023027E22083319728E22083319729E2208323
S1130240319720E32083319721E320838697089513
S11302500E94B300A091BA06B091BB06CD91CDBF68
S1130260DD91DEBFFF91EF91DF91CF91BF91AF910F
S11302709F918F917F916F915F914F913F912F91BA
S11302801F910F91FF90EF90DF90CF90BF90AF90B0
S11302909F908F907F906F905F904F903F902F90A2
S11302A01F900F900FBE0F90089581E008950F9254
S11302B00FB6F8940F921F9211242F923F924F92EF
S11302C05F926F927F928F929F92AF92BF92CF92E2
S11302D0DF92EF92FF920F931F932F933F934F93CD
S11302E05F936F937F938F939F93AF93BF93CF93BA
S11302F0DF93EF93FF93A091BA06B091BB060DB6BE
S11303000D920EB60D920E94640AA091BA06B091A5
S1130310BB06CD91CDBFDD91DEBFFF91EF91DF91A3
S1130320CF91BF91AF919F918F917F916F915F9189
S11303304F913F912F911F910F91FF90EF90DF907C
S1130340CF90BF90AF909F908F907F906F905F9071
S11303504F903F902F901F900F900FBE0F900895D5
S11303600F920FB6F8940F921F9211242F923F927E
S11303704F925F926F927F928F929F92AF92BF92B1
S1130380CF92DF92EF92FF920F931F932F933F939D
S11303904F935F936F937F938F939F93AF93BF9389
S11303A0CF93DF93EF93FF93A091BA06B091BB066E
S11303B00DB60D920EB60D920E945F0881110E9437
S11303C0640AA091BA06B091BB06CD91CDBFDD9170
S11303D0DEBFFF91EF91DF91CF91BF91AF919F91DC
S11303E08F917F916F915F914F913F912F911F91C9
S11303F00F91FF90EF90DF90CF90BF90AF909F90C0
S11304008F907F906F905F904F903F902F901F90B0
S11304100F900FBE0F9008950E94B0011895EEE75B
S1130420F0E0A2E8B0E0B183A08313821282EAE58F
S1130430F6E0F0937D00E0937C0013821282118237
S1130440108288ED95E013969C938E931297ED930A
S1130450FC93909379008093780090937B00809331
S11304607A000895CF93DF93EC01AEE7B0E001C0CA
S1130470DF01ED91FC911197EC17FD07C8F312967B
S11304808D919C9113979D01280F391FC217D30793
S113049049F42A813B81820F931F13969C938E9378
S11304A01297ED018A819B819E01280F391FE21763
S11304B0F307C1F420917C0030917D00E217F3072B
S11304C071F022813381820F931F9B838A83ED9184
S11304D0FC911197808191819983888305C0398328
S11304E0288302C0F983E883CA17DB0711F0CD9390
S11304F0DC93DF91CF910895EF92FF920F931F93B6
S1130500CF93DF938C010E94590880917C009091D5
S11305107D00892B11F40E940F020115110549F089
S11305200B3F8FEF180718F40B5F1F4F02C000E05A
S113053010E011230CF466C00115110509F465C01F
S113054080917A0090917B008017910708F460C035
S1130550C0917E00D0917F00EEE7F0E002C0FE0182
S1130560EC018A819B818017910720F4888199810D
S11305700097A9F780917C0090917D00C817D90756
S113058009F449C0E080F18084E0E80EF11C888120
S11305909981918380832A813B81201B310B2930EF
S11305A0310550F0CE01800F911FFC01338322836B
S11305B01B830A830E9432022A813B8180917A0044
S11305C090917B00821B930B90937B0080937A0025
S11305D040917800509179008417950720F4909306
S11305E079008093780030683B832A8319821882CB
S11305F08091760090917700019690937700809394
S113060076000BC0E12CF12C08C0E12CF12C05C0C4
S1130610E12CF12C02C0E12CF12C0E947909C701D4
S1130620DF91CF911F910F91FF90EF9008950F9359
S11306301F93CF93DF93009749F1EC0124972A810C
S11306403B8133231CF548815981452BF9F43F77CD
S11306503B832A830E9459088A819B8120917A00D6
S113066030917B00820F931F90937B0080937A00DC
S1130670CE010E943202809174009091750001961F
S113068090937500809374000E947909DF91CF9153
S11306901F910F910895DC0151962C9151972223BB
S11306A041F05696ED91FC915797908184E0891B17
S11306B0089580E008950FB6F8940F92FC01828D9E
S11306C0811102C081E001C080E00F900FBE089547
S11306D00FB6F8940F92FC01228D838D281302C06B
S11306E081E001C080E00F900FBE08950F931F9327
S11306F0CF93DF93EC01042F1A8D4C8D41110CC064
S113070088819981892B09F042C08C819D810E9446
S11307105C0C1D821C8242C0011117C050E08A810A
S11307209B810E94FC0E2C8D8A819B81820F911DDE
S11307309B838A832C813D818217930750F18881A2
S113074099819B838A8380E029C050E08E819F81B8
S11307500E94FC0E8C8D90E09195819591092E81DB
S11307603F81280F391F3F832E83488159812417E5
S1130770350730F42C813D81820F931F9F838E8334
S1130780023049F4112349F0115080E007C080E0A1
S113079005C080E003C080E001C080E01F5F1A8FC5
S11307A0DF91CF911F910F9108951F93CF93DF9302
S11307B0EC010FB6F8940F921E8D0BC08989882323
S11307C051F0CE0141960E94CA0A81110E94C40BC5
S11307D0115011169CF38FEF8E8F0F900FBE0FB632
S11307E0F8940F921D8D0BC08885882351F0CE019B
S11307F008960E94CA0A81110E94C40B1150111656
S11308009CF38FEF8D8F0F900FBEDF91CF911F91CF
S113081008950F931F93CF93DF93FC01362F892BF9
S113082009F44DC0238D222309F44BC0022F10E09C
S11308308FEF9FEFB8010E94E80E448D842F90E063
S11308406817790708F43FC0EF010FB6F8940F92C8
S113085060817181FB01249FE00DF11D1124FD8352
S1130860EC831A8E7B836A8301501109809FA00157
S1130870819F500D909F500D1124CB01840F951F23
S11308809F838E838FEF8D8F8E8F31110CC088855F
S1130890882389F0CE0108960E94CA0A882359F059
S11308A00E94570108C0CE0108960E944900CE015B
S11308B041960E9449000F900FBE81E005C080E080
S11308C003C080E001C080E0DF91CF911F910F91C0
S11308D008950F931F93F801611103C011830083DE
S11308E002C051834083838F648F61E0CF010E94F3
S11308F009041F910F910895DF92EF92FF920F93D5
S11309001F93CF93DF93382FE62F882329F1682F85
S113091070E08FEF9FEF0E94E80E8E2F90E0681733
S11309207907E8F03E9FC0011124813E2FEF920722
S1130930C8F4D42EDE2FC32F4F960E947C027C0174
S1130940009791F08C012D2DAC01415E5F4F6D2F0E
S11309508C2F0E94690408C0E12CF12C05C0E12C05
S1130960F12C02C0E12CF12CC701DF91CF911F9132
S11309700F91FF90EF90DF900895CF92DF92EF9266
S1130980FF920F931F93CF93DF9300D000D01F9259
S1130990CDB7DEB78C017B015D834C83C22ED12C95
S11309A00FB6F8940F92F801928D838D981718F072
S11309B0F2E0CF1219C04C2DB701C8010E94760392
S11309C0F8019189992349F0C80141960E94CA0A05
S11309D0882331F00E94570103C081110E945701FE
S11309E00F900FBE81E04DC08C819D81892B21F435
S11309F00F900FBE80E045C0D11006C0CE01019615
S1130A000E94870BDD24D3940F900FBE0E945908D7
S1130A100FB6F8940F92F801858D8F3F09F4158E67
S1130A20F801868D8F3F09F4168E0F900FBEBE011C
S1130A306C5F7F4FCE0101960E94920B81111BC007
S1130A40C8010E946803882381F06C817D81C801FC
S1130A5008960E94B80AC8010E94D5030E94790929
S1130A6081119ECF0E9457019BCFC8010E94D503DC
S1130A700E94790995CFC8010E94D5030E94790983
S1130A8080E00F900F900F900F900F90DF91CF9117
S1130A901F910F91FF90EF90DF90CF9008950097F2
S1130AA069F0FC011582148211821082168220E002
S1130AB040E050E060E070E00E94BD040895CF93F0
S1130AC0DF93482F60E081E00E947C04EC010E94E7
S1130AD04F05CE01DF91CF910895EF92FF920F93CE
S1130AE01F93CF93DF9300D000D01F92CDB7DEB712
S1130AF08C017D836C83E12CF12C0FB6F8940F925A
S1130B00F801828D8823D1F08150828F8081918178
S1130B10892B29F40E94320DF80195838483F8010E
S1130B208085882339F0C80108960E94CA0A811179
S1130B300E9457010F900FBE81E074C08C819D818B
S1130B40892B21F40F900FBE80E06CC0F11006C019
S1130B50CE0101960E94870BFF24F3940F900FBEE1
S1130B600E9459080FB6F8940F92F801858D8F3FB3
S1130B7009F4158EF801868D8F3F09F4168E0F90B7
S1130B800FBEBE016C5F7F4FCE0101960E94920B97
S1130B9081112AC0C8010E945B038823F9F0F8017F
S1130BA080819181892B51F40FB6F8940F9284813E
S1130BB095810E94C80BE82E0F900FBE6C817D8139
S1130BC0C80141960E94B80AC8010E94D5030E9438
S1130BD07909811192CF0E9457018FCFC8010E94D9
S1130BE0D5030E94790989CFC8010E94D5030E94C8
S1130BF07909C8010E945B03882309F47ECFEE20A3
S1130C0081F00FB6F8940F92C8010E944B03682F2D
S1130C10F801848195810E94BF0C0F900FBE80E083
S1130C2001C080E00F900F900F900F900F90DF9114
S1130C30CF911F910F91FF90EF900895E09182065C
S1130C40F09183068081811107C08FEF9FEF90930D
S1130C506206809361060895E0918206F09183060E
S1130C600580F681E02D80819181909362068093C6
S1130C7061060895CF93DF93EC018F89988D0E94CC
S1130C801703CE010E941703DF91CF9108956F924D
S1130C907F928F929F92AF92BF92CF92DF92EF9208
S1130CA00F931F93CF93DF93CDB7DEB74C01F501BC
S1130CB08789908D215031093C01620E731E6115A4
S1130CC0710589F415C0822F90E0FB01E80FF91F2C
S1130CD03081D501A80FB91F59963C938081882390
S1130CE029F02F5F01C020E0283068F3F50110A23D
S1130CF0F3E0FE1520F40F2EF3E0EF2EF02DF501B6
S1130D00E68AE1A2C50102960E945700C5010C962D
S1130D100E945700F501B186A08684E090E08E1908
S1130D20910995878487B38AA28AA801B401C30173
S1130D300E94BC00F50191838083C114D10419F091
S1130D40F601B182A082DF91CF911F910F91EF90B4
S1130D50DF90CF90BF90AF909F908F907F906F90D7
S1130D600895CF93C0E010C08C2F90E09C01220F17
S1130D70331F220F331F220F331F820F931F8A56F4
S1130D80994F0E944900CF5FC43070F38DE896E01C
S1130D900E94490084E896E00E94490087E796E0B3
S1130DA00E9449008EE696E00E9449008DE896E094
S1130DB0909383068093820684E896E0909381065C
S1130DC080938006CF910895CF93DF93EC010FB603
S1130DD0F8940F9280916C068F5F80936C068091DB
S1130DE0BA069091BB06892B59F4D093BB06C093E5
S1130DF0BA0680916C06813099F40E94B10610C045
S1130E008091680681110CC0E091BA06F091BB068E
S1130E1096898E89891720F0D093BB06C093BA06B1
S1130E20809163068F5F809363068E899091690633
S1130E30981710F48093690690E0FC01EE0FFF1FF1
S1130E40EE0FFF1FEE0FFF1F8E0F9F1FFC01EA56D0
S1130E50F94F0180F281E02DFD83EC83848195813B
S1130E609F838E83A481B581CE01029613969C93B1
S1130E708E93129795838483EE89F0E0CF01880FD7
S1130E80991F880F991F880F991FE80FF91FEA56B9
S1130E90F94FFB87EA8780818F5F80830F900FBEB5
S1130EA080916806882351F0E091BA06F091BB0660
S1130EB096898E89981710F40E945701DF91CF917B
S1130EC00895CF93DF931CC00FB6F8940F92E0916E
S1130ED07306F0917406C681D781CE0102960E94F2
S1130EE08C0080916C06815080936C0680916D0615
S1130EF0815080936D060F900FBECE010E943A067A
S1130F0080916D068111E0CFDF91CF9108950E9409
S1130F106107809196068230D0F30E945701F7CF83
S1130F200F931F93CF93DF93EC0100916A06109106
S1130F306B068091BA069091BB0602960E948C00C3
S1130F40C00FD11FE091BA06F091BB06D383C283D0
S1130F50C017D10768F46091BA067091BB068091FE
S1130F608006909181066E5F7F4F0E945B0017C0E0
S1130F706091BA067091BB068091820690918306B7
S1130F806E5F7F4F0E945B008091610690916206C4
S1130F90C817D90720F4D0936206C0936106DF9185
S1130FA0CF911F910F9108952F923F924F925F928C
S1130FB06F927F928F929F92AF92BF92CF92DF9265
S1130FC0EF92FF920F931F93CF93DF933C011B018A
S1130FD05A012901CA010E947C026C01892B99F0F3
S1130FE088E290E00E947C02EC01892B41F088E2C7
S1130FF0FE0111928A95E9F7D88ECF8A06C0C60100
S11310000E94170302C0C0E0D0E0209791F0950140
S113101040E050E0812C912C5E016701E02E8201BA
S1131020B101C3010E944706CE010E94E40681E09B
S113103001C08FEFDF91CF911F910F91FF90EF903F
S1131040DF90CF90BF90AF909F908F907F906F90E4
S11310505F904F903F902F900895EF92FF920F93DF
S11310600F2EFFE5EF2EF6E0FF2EF02D00E020E03E
S113107030E045E550E061E670E087E897E00E94E3
S1131080D407813081F4F8948FEF9FEF9093620638
S11310908093610681E08093680610926B0610923B
S11310A06A060E942801809160000F91FF90EF90E2
S11310B0089580915E068F5F80935E0608950F9376
S11310C01F93CF93DF9380915E06811101C1C0917C
S11310D06A06D0916B068E010F5F1F4F10936B064B
S11310E000936A0601151105B9F480918206909166
S11310F083062091800630918106309383062093E5
S113110082069093810680938006809164068F5FA7
S1131110809364060E941E06809161069091620687
S11311200817190720F480E0B8C081E001C080E00E
S1131130E0918206F09183069081911107C02FEF10
S11311403FEF3093620620936106A7C0E0918206C8
S1131150F09183060580F681E02D0680F781E02D6D
S1131160228133810217130728F4309362062093F7
S1131170610693C0A285B385248135814681578158
S1131180E9015D834C832681378144815581E901DE
S11311905B834A8311962D913C911297AF014E5F68
S11311A05F4F2417350731F42681378112963C931B
S11311B02E931197138612869C9191509C93A48927
S11311C0B589109719F12685378560897189E901F8
S11311D07D836C832089318966857785E9017B83EA
S11311E06A8311966D917C9112979F01245F3F4F02
S11311F06217730731F42089318912963C932E9338
S11312001197158A148A9C9191509C9326899091E8
S11312106906921710F42093690630E0D901AA0FE9
S1131220BB1FAA0FBB1FAA0FBB1F2A0F3B1FD9014D
S1131230AA56B94F11960D90BC91A02DB583A483E5
S113124014962D913C9115973783268314962D91EE
S11312503C911597E9015B834A8315965C934E9301
S11312601497A689B0E09D01220F331F220F331F6C
S1131270220F331FA20FB31FAA56B94FB387A287F9
S11312809C919F5F9C932689E091BA06F091BB06DE
S11312909689921708F449CF4BCFE091BA06F091A2
S11312A0BB06268930E0F901EE0FFF1FEE0FFF1F8A
S11312B0EE0FFF1F2E0F3F1FF901EA56F94F9081E1
S11312C0923008F081E09091650691110CC00CC039
S11312D080916606909167060196909367068093C5
S11312E0660680E001C081E0DF91CF911F910F91EC
S11312F00895CF93DF930FB6F8940F9280915E0612
S1131300815080935E0680915E068111BFC08091FA
S11313106C06811196C0BDC0E0917C06F0917D06FB
S11313200680F781E02DA489B589C685D785808993
S113133091899D838C83C089D189868597859B8378
S11313408A8311962D913C911297CF010C96281700
S1131350390731F48089918912969C938E93119761
S1131360158A148A8C9181508C93A285B385C4818B
S1131370D581868197819D838C83C681D781848121
S113138095819B838A8311968D919C9112979F01DD
S11313902E5F3F4F8217930731F48681978112960F
S11313A09C938E931197138612868C9181508C9303
S11313B0868990916906981710F48093690690E0E5
S11313C0DC01AA0FBB1FAA0FBB1FAA0FBB1F8A0FEA
S11313D09B1FDC01AA56B94F11960D90BC91A02D0C
S11313E0B583A48314968D919C91159797838683D6
S11313F01496CD91DC9115973B832A8315963C93E3
S11314002E931497A689B0E0CD01880F991F880FF9
S1131410991F880F991FA80FB91FAA56B94FB387F0
S1131420A2878C918F5F8C939689A091BA06B09114
S1131430BB0656968C91981730F081E08093650630
S113144002C0E0E0F0E080917706811165CFEF2BD8
S113145011F00E941E06C0916606D091670620977F
S113146069F00E945F08882319F081E08093650683
S11314702197B9F710926706109266068091650667
S1131480882331F00E94570181E003C080E001C04D
S113149080E00F900FBEDF91CF910895CF93DF933B
S11314A0EC01892B49F00E94590860E0CE010E94AA
S11314B090070E94790901C080E0811102C00E9456
S11314C05701DF91CF91089580915E06882321F022
S11314D081E080936506089510926506209169065F
S11314E001C02150822F90E0FC01EE0FFF1FEE0F90
S11314F0FF1FEE0FFF1FE80FF91FEA56F94F308167
S1131500332379F3AC01440F551F440F551F440F87
S1131510551F480F591FDF010180F281E02D028021
S1131520F381E02D1296FC93EE9311974756594F91
S1131530E417F50729F442815381FD015283418365
S1131540FC01EE0FFF1FEE0FFF1FEE0FFF1F8E0FAC
S11315509F1FFC01EA56F94F0180F281E02D86813C
S113156097819093BB068093BA06209369060895E9
S1131570CF93DF93EB016091BA067091BB06645F71
S11315807F4F0E945B0061E0CE010E949007DF91D3
S1131590CF910895CF93DF93DC011596ED91FC91E3
S11315A016970680F781E02DA489B589C685D7856D
S11315B0808991899D838C83C089D189868597850B
S11315C09B838A8311968D919C9112979F01245F2E
S11315D03F4F8217930731F48089918912969C9327
S11315E08E931197158A148A8C9181508C938091D3
S11315F05E06811160C0A285B385C481D5818681D0
S113160097819D838C83C681D781848195819B83B7
S11316108A8311968D919C9112979F012E5F3F4F63
S11316208217930731F48681978112969C938E9347
S11316301197138612868C9181508C938689909190
S11316406906981710F48093690690E0DC01AA0FEC
S1131650BB1FAA0FBB1FAA0FBB1F8A0F9B1FDC0156
S1131660AA56B94F11960D90BC91A02DB583A483B1
S113167014968D919C911597978386831496CD919A
S1131680DC9115973B832A8315963C932E931497EC
S1131690A689B0E0CD01880F991F880F991F880F84
S11316A0991FA80FB91FAA56B94FB387A2878C9167
S11316B08F5F8C931CC047E756E0DA011196CD91F9
S11316C0DC911297D787C6878C819D81918B808B03
S11316D08C819D81DC0113963C932E9312973D835C
S11316E02C83558B448BDA018C918F5F8C93968974
S11316F0E091BA06F091BB068689891720F481E04F
S11317008093650601C080E0DF91CF910895209118
S11317106406FC01208320916A0630916B063283B3
S113172021830895CF93DF930FB6F8940F924091DD
S11317306A0650916B06EC0129813A81DA01A21BF9
S1131740B30BF881E0916406FE1741F0421753078A
S113175028F0FB011182108281E011C0EB01288185
S11317603981A217B30740F42A1B3B0B3983288322
S11317700E94870B80E003C01982188281E00F90D9
S11317800FBEDF91CF91089581E08093650608959F
S11317900F931F93CF93DF93FC01892B09F484C02B
S11317A02689A091BA06B091BB0656968C9128174B
S11317B008F070C084859585992364F0A091BA06D9
S11317C0B091BB0656963C9184E090E0831B91094E
S11317D0958784878285938530E0A901440F551F3E
S11317E0440F551F440F551F240F351F2A56394FD8
S11317F08217930709F045C0EF018F010E5F1F4F59
S1131800C8010E948C00E091BA06F091BB0686895B
S11318108E8B90916906981710F48093690690E076
S1131820FC01EE0FFF1FEE0FFF1FEE0FFF1F8E0FC9
S11318309F1FFC01EA56F94F0180F281E02DFD83E0
S1131840EC83848195819F838E83A481B5811396D3
S11318501C930E931297158304838E8990E0FC01E8
S1131860EE0FFF1FEE0FFF1FEE0FFF1FE80FF91F14
S1131870EA56F94FFB87EA8780818F5F808381E096
S113188016C0A091BA06B091BB0656968C91868B71
S113189081E00DC091A1E091BA06F091BB06868962
S11318A0981720F080E003C080E001C081E0DF9160
S11318B0CF911F910F9108950F931F93CF93DF93AF
S11318C0FC01892B09F451C082A1815082A326898D
S11318D091A1291709F44BC081114BC0EF018F016D
S11318E00E5F1F4FC8010E948C0089A18E8B24E0DB
S11318F030E0281B31093D872C87909169069817A1
S113190010F48093690690E0FC01EE0FFF1FEE0FC8
S1131910FF1FEE0FFF1F8E0F9F1FFC01EA56F94FAA
S11319200180F281E02DFD83EC83848195819F8386
S11319308E83A481B58113961C930E9312971583FD
S11319400483EE89F0E0CF01880F991F880F991F57
S1131950880F991FE80FF91FEA56F94FFB87EA87AA
S113196080818F5F808381E005C080E003C080E0D8
S113197001C080E0DF91CF911F910F9108950F93E3
S11319801F93CF93DF93FC01892B09F466C091A1C7
S1131990961708F4962F8689981709F45EC022A139
S11319A0213009F05AC0968B24853585332334F0D1
S11319B024E030E0291B31093587248722853385CB
S11319C090E0AC01440F551F440F551F440F551FA1
S11319D0840F951F8A56994F28173907F1F5EF019F
S11319E08F010E5F1F4FC8010E948C008E89909159
S11319F06906981710F48093690690E0FC01EE0FD5
S1131A00FF1FEE0FFF1FEE0FFF1F8E0F9F1FFC0126
S1131A10EA56F94F0180F281E02DFD83EC83848145
S1131A2095819F838E83A481B58113961C930E9315
S1131A301297158304838E8990E0FC01EE0FFF1F3B
S1131A40EE0FFF1FEE0FFF1FE80FF91FEA56F94FC5
S1131A50FB87EA8780818F5F8083DF91CF911F911D
S1131A600F9108958091BA069091BB06892B39F0A5
S1131A70E091BA06F091BB0682A18F5F82A38091A8
S1131A80BA069091BB0608958FB583688FBD8EB555
S1131A9083608EBD089587B1806487B986B18668F6
S1131AA086B9089597B1907F97B997B1892B87B973
S1131AB086B1806486B93699FECF84B195B1089514
S1131AC080E00E94520D9093BD068093BC066FEF98
S1131AD07FEF8091BE069091BF060E946D05813014
S1131AE0E9F46091BC067091BD0680E090E00E942C
S1131AF05A0E2DEC3CEC4CE85FE30E94B90D0E94B9
S1131B002B0E7BBD6ABD20E040E050E060E070E059
S1131B108091BE069091BF060E94BD0482E390E0CE
S1131B200E944E0ACDCFEF92FF920F9381E00E9464
S1131B305F059093BF068093BE0681B3806281BB2C
S1131B400E94440D0E944B0DE12CF12C01E020E099
S1131B5030E045E550E066E670E080E69DE00E94F6
S1131B60D4070E942D0880E090E00F91FF90EF9041
S1131B7008950E94CD0D0C94AE0E0E94A70E58F04D
S1131B800E94A00E40F029F45F3F29F00C94970EB8
S1131B9051110C94E20E0C949D0E0E94BF0E68F33A
S1131BA09923B1F3552391F3951B550BBB27AA2712
S1131BB062177307840738F09F5F5F4F220F331F4C
S1131BC0441FAA1FA9F335D00E2E3AF0E0E832D014
S1131BD091505040E695001CCAF72BD0FE2F29D017
S1131BE0660F771F881FBB1F261737074807AB07E9
S1131BF0B0E809F0BB0B802DBF01FF2793585F4F5E
S1131C003AF09E3F510578F00C94970E0C94E20E36
S1131C105F3FE4F3983ED4F3869577956795B7953F
S1131C20F7959F5FC9F7880F911D9695879597F94A
S1131C300895E1E0660F771F881FBB1F62177307C3
S1131C408407BA0720F0621B730B840BBA0BEE1FD8
S1131C5088F7E09508950E94C70E88F09F5798F082
S1131C60B92F9927B751B0F0E1F0660F771F881F9D
S1131C70991F1AF0BA95C9F714C0B13091F00E94B7
S1131C80E10EB1E008950C94E10E672F782F8827B8
S1131C90B85F39F0B93FCCF3869577956795B395DE
S1131CA0D9F73EF490958095709561957F4F8F4F4D
S1131CB09F4F0895E89409C097FB3EF49095809552
S1131CC0709561957F4F8F4F9F4F9923A9F0F92FFE
S1131CD096E9BB279395F695879577956795B7957C
S1131CE0F111F8CFFAF4BB0F11F460FF1BC06F5F62
S1131CF07F4F8F4F9F4F16C0882311F096E911C074
S1131D00772321F09EE8872F762F05C0662371F094
S1131D1096E8862F70E060E02AF09A95660F771FA8
S1131D20881FDAF7880F9695879597F9089597F99C
S1131D309F6780E870E060E008959FEF80EC08956D
S1131D4000240A9416161706180609060895002496
S1131D500A9412161306140605060895092E039410
S1131D60000C11F4882352F0BB0F40F4BF2B11F484
S1131D7060FF04C06F5F7F4F8F4F9F4F089557FDE3
S1131D809058440F551F59F05F3F71F04795880FE5
S1131D9097FB991F61F09F3F79F08795089512167C
S1131DA013061406551FF2CF4695F1DF08C0161628
S1131DB017061806991FF1CF8695710561050894D9
S1131DC00895E894BB2766277727CB0197F90895F0
S1131DD0AA1BBB1B51E107C0AA1FBB1FA617B7074D
S1131DE010F0A61BB70B881F991F5A95A9F7809569
S1131DF09095BC01CD010895FB01DC0102C0019066
S1111E000D9241505040D8F70895F894FFCF4A
S1131E0E0349444C45004D6F746F72436F6E747288
S1071E1E6F6C0000E1
S9030000FC
